S01800006275696C642F6D6963617A2F6D61696E2E73726563E5
S11300000C9461010C9488080C9492080C949C083C
S11300100C94A6080C94B0080C94BA080C94B11172
S11300200C94C4080C9480010C9480010C94E91481
S11300300C9489160C9452080C9468080C946C0C5B
S11300400C9441080C94A2190C94670A0C94800136
S11300500C94E30A0C9480010C9480010C948001AC
S11300600C945D080C94390C0C94180C0C94230C0F
S11300700C942E0C0C944C0C0C94FB0B0C948001E3
S11300800C940D0C0C9480010C94800140234423A7
S11300909923F0230B2412244E2407252A253F25D7
S11300A042257525C725F625CB263723252A332A4D
S11300B0862A5C2B692B6D2B722BD52B000021100B
S11300C0422063308440A550C660E77008812991BE
S11300D04AA16BB18CC1ADD1CEE1EFF13112100266
S11300E073325222B5529442F772D662399318830E
S11300F07BB35AA3BDD39CC3FFF3DEE36224433432
S113010020040114E664C774A44485546AA54BB55D
S113011028850995EEE5CFF5ACC58DD55336722605
S113012011163006D776F6669556B4465BB77AA7AD
S113013019973887DFF7FEE79DD7BCC7C448E55851
S11301408668A7784008611802282338CCC9EDD9FD
S11301508EE9AFF9488969990AA92BB9F55AD44AA5
S1130160B77A966A711A500A333A122AFDDBDCCB4D
S1130170BFFB9EEB799B588B3BBB1AABA66C877C71
S1130180E44CC55C222C033C600C411CAEED8FFD9D
S1130190ECCDCDDD2AAD0BBD688D499D977EB66E45
S11301A0D55EF44E133E322E511E700E9FFFBEEFED
S11301B0DDDFFCCF1BBF3AAF599F788F8891A981AF
S11301C0CAB1EBA10CD12DC14EF16FE18010A10099
S11301D0C230E3200450254046706760B983989389
S11301E0FBA3DAB33DC31CD37FE35EF3B1029012E9
S11301F0F322D2323542145277625672EAB5CBA555
S1130200A89589856EF54FE52CD50DC5E234C32438
S1130210A01481046674476424540544DBA7FAB728
S11302209987B8975FE77EF71DC73CD7D326F23688
S11302309106B01657667676154634564CD96DC974
S11302400EF92FE9C899E9898AB9ABA944586548D8
S113025006782768C018E1088238A3287DCB5CDBC8
S11302603FEB1EFBF98BD89BBBAB9ABB754A545A28
S1130270376A167AF10AD01AB32A923A2EFD0FED94
S11302806CDD4DCDAABD8BADE89DC98D267C076C78
S1130290645C454CA23C832CE01CC10C1FEF3EFF68
S11302A05DCF7CDF9BAFBABFD98FF89F176E367EC8
S11302B0554E745E932EB23ED10EF01E00081C18EB
S11302C0141011241FBECFEFD0E1DEBFCDBF11E06B
S11302D0A0E0B1E0E2E3F2E600E00BBF02C0079069
S11302E00D92A631B107D9F711E1A6E1B1E001C041
S11302F01D92AA32B107E1F70E94B12C0C94183177
S11303000C9400008FB7F894992708958FBF08952F
S1130310282F9FB7F894E82FFF27E854FC4F8081DB
S11303208F3F81F4E0910A11E21771F40BC020931E
S11303307A0E04C0FF27E854FC4F208320930A114F
S113034020E007C025E005C080917A0E8F3F91F729
S1130350EECF892F99278FBF822F9927089584E0A4
S11303600E9488019927089585E00E9488019927B1
S113037008958FB7F8949927609332018FBF82E074
S11303800E948801089586E00E94880199270895B3
S11303908CE00E948801992708958EE00E948801CC
S11303A09927089583E10E9488019927089581E19E
S11303B00E948801992708957FB7F89462B7209125
S11303C08C0130918D0140918E0150918F0106B6C0
S11303D001FE0FC081B792B7280F311D411D511D79
S11303E02F5F3F4F4F4F5F4F290F311D411D511D4F
S11303F004C0260F311D411D511D872F99278FBF22
S1130400CA01B9010895EF920F931F93AE2D99E09D
S1130410899FF0011124E25AFB4F40835183628388
S113042073830483158326833783A17080858E7F2D
S11304308A2B826080878BE00E9488011F910F9134
S1130440EF900895AF92BF92CF92DF92EF92FF9216
S11304500F931F93F82E5A016B010E94DC01AB012C
S1130460BC0181E0E82E960185018F2D0E940302D4
S11304701F910F91FF90EF90DF90CF90BF90AF90BE
S11304800895AF92BF92CF92DF92EF92FF920F93B3
S11304901F93F82E5A016B010E94DC01AB01BC01D1
S11304A0EE24960185018F2D0E9403021F910F9166
S11304B0FF90EF90DF90CF90BF90AF900895209180
S11304C0080480E0222309F481E08823C9F422236C
S11304D0E1F080912711E82FFF27EE0FFF1FEC5961
S11304E0FE4F4081518111821082215020930804D3
S11304F08F5F80932711843151F41092271107C024
S11305008091F00D8F5F8093F00D40E050E0CA01C0
S113051008959FB7F8948091FF098A3011F020E084
S113052006C020E080911604843009F421E0892F6C
S113053099278FBF222349F084E10E9488018FB755
S1130540F894992710924D0106C08FB7F894992713
S113055021E020934D018FBF08952FB7F8943327DE
S11305608CB95E9A2FBF0895FC016115710519F4C9
S113057081E090E0089580913A0490913B04892BA6
S113058019F085E090E008957093E70D6093E60D0F
S1130590F0933B04E0933A04109218041092170469
S11305A081E0809319045E9A569A808121E030E0BC
S11305B030931804209317040E94AD0280E090E069
S11305C0089580915E018E7F80935E018EE7809313
S11305D0070461E070E087E094E00E94B402992788
S11305E008951F931FB7F8948091C80E882341F48F
S11305F082E10E948801882319F481E08093C80E67
S1130600812F99278FBF1F910895BC015091091123
S11306108FEF6F3F780711F040E016C0852F9927C0
S11306200895242F33278BE090E0289FF001299F21
S1130630F00D389FF00D1124EA55FE4F8085918509
S11306408617970719F04F5F451759F7842F992795
S113065008950E94DC01089520914504213118F089
S113066081E090E00895E0912704E20FE13108F081
S1130670E151FF27EE0FFF1FEA5FF54F918380835F
S11306802F5F2093450480E090E008952091440476
S11306902C3018F081E090E00895E0918C0EE20F88
S11306A0EC3008F0EC50FF27EE0FFF1FE45FFE4E26
S11306B0918380832F5F2093440480E090E0089529
S11306C0282F9FB7F894662349F0E82FFF27E35DAE
S11306D0F54F8081882311F021E006C0E22FFF2727
S11306E0E35DF54F608320E0892F99278FBF822F28
S11306F099270895E82F8FB7F894282F332790E08F
S1130700FF27E35DF54F8081861709F491E02FBF41
S1130710892F9927089560E080E00E947A03992741
S11307200895682F81E00E947A0399270895882309
S113073011F06E9A08956E980895882311F06F9AB7
S113074008956F98089580E00E949703BA9ABB9821
S1130750B99A6C9A80E00E949D03709A6B986A988B
S1130760689881E00E94970308950F931F93CF9395
S1130770DF93182F8FB7F894C82FDD270C2F61E073
S113078080E00E946003882321F0CFBF85E090E0E1
S113079024C0809105018823A1F48091370182301F
S11307A081F409C082E080933701109205010E9410
S11307B0A303B89AC0981093020180E00FBF992751
S11307C00CC080913701882369F38FB7F894992777
S11307D010922D0A8FBF81E0F1CFDF91CF911F914D
S11307E00F9108951F93182F81E00E9497031FB95A
S11307F0779BFECF8FB199271F9108958F929F9277
S1130800AF92BF92CF92DF92EF92FF920F931F931A
S1130810CF93DF938FB7F8949927C090900ED09020
S1130820910E8090FC049090FD04C0915104D091ED
S1130830520420916101309162015AE0A52EB12C3D
S1130840AC0EBD1E2A153B0508F459018FBF740177
S1130850EC0EFD1E86010C0F1D1F14C0C114D10423
S113086019F0F801808101C080E00E94F203811434
S1130870910411F0F701808321960894E11CF11C86
S11308800F5F1F4FC5010197C817D90738F381E0DF
S11308900E949D039FB7F894C114D10431F0CC0E8B
S11308A0DD1EF60180818FB901C01FB8D0935204B8
S11308B0C0935104892F99278FBF80E090E0DF9186
S11308C0CF911F910F91FF90EF90DF90CF90BF9049
S11308D0AF909F908F9008952FB7F894332750933B
S11308E06201409361019093910E8093900E7093F6
S11308F0FD046093FC0410925204109251042FBF23
S1130900452B29F08FB10E94FE039927089587E0B3
S11309100E94880180E090E008958FB7F8949927A9
S113092010922F0A8FBF089580914401E82FFF276A
S1130930EE0FFF1FE351FF4E0190F081E02D209157
S11309404601222361F0223038F0882311F48AE032
S113095001C0815080934401215020934601CF016E
S113096008959C016C5E6D3118F080E090E008956C
S11309700C9611F0C9018096089520914404222315
S113098019F440E050E016C080918C0EE82FFF2748
S1130990EE0FFF1FE45FFE4E4081518111821082F1
S11309A02150209344048F5F80938C0E8C3011F47B
S11309B010928C0ECA01089520914504222319F443
S11309C040E050E016C080912704E82FFF27EE0F87
S11309D0FF1FEA5FF54F408151811182108221503F
S11309E0209345048F5F80932704813111F4109282
S11309F02704CA010895309146013B3019F481E07F
S1130A0090E00895332351F0209144012A3019F4E1
S1130A101092440103C02F5F20934401E0914401EC
S1130A20FF27EE0FFF1FE351FF4E918380833F5F4B
S1130A303093460180E090E008958F929F92AF92A8
S1130A40BF92CF92DF92EF92FF920F931F93CF93B7
S1130A50DF93FC019CE0892E912C8E0E9F1EA488AE
S1130A60BB24BA2CAA2485899927A82AB92ACC247C
S1130A70DD2480899927982F882721893327822B81
S1130A80932BAA27BB27A80EB91ECA1EDB1EE4019E
S1130A906A81772788279927982F872F762F6627AB
S1130AA0E484FF24002711271E2D0027FF24EE24B1
S1130AB02981332744275527A90133272227E22AEE
S1130AC0F32A042B152B2B81332744275527E22A9D
S1130AD0F32A042B152B6E297F29802B912B208D33
S1130AE03327322F2227E18DFF272E2B3F2B44273C
S1130AF05527620F731F841F951F2E85A20EB11CEC
S1130B00C11CD11C2F85620F711D811D911D288967
S1130B10A20EB11CC11CD11C6A0D7B1D8C1D9D1D18
S1130B20DF91CF911F910F91FF90EF90DF90CF90C5
S1130B30BF90AF909F908F900895FC016683672FBC
S1130B407727678308950F931F93CF93DF93EC0167
S1130B508B010E940503982F803319F481E090E003
S1130B603BC080910911E92FFF27981729F52FB76A
S1130B70F89433278BE090E0AF01489FF001499F40
S1130B80F00D589FF00D1124EA55FE4FD187C08710
S1130B901183008381E090E09383828384E690E074
S1130BA095838483168217821286809109118F5F40
S1130BB0809309112FBF0EC08BE090E09F01289F06
S1130BC0F001299FF00D389FF00D1124EA55FE4FD6
S1130BD01183008380E090E0DF91CF911F910F910A
S1130BE008952F923F924F925F926F927F928F92CD
S1130BF09F92AF92BF92CF92DF92EF92FF920F93A8
S1130C001F93CF93DF93CDB7DEB729970FB6F89430
S1130C10DEBF0FBECDBF6FB76983F8942090230465
S1130C2030902404409025045090260466247724B0
S1130C308824EEE4AE2E73E8B72ECC24DD24EE2413
S1130C40FF2400E010E0222D332D442D552D662D78
S1130C50772D882D90E00E94E52E2A833B834C83D8
S1130C605D836E837F8388879987822E932EA42E3B
S1130C70B52E2401350100E20E94E32FA22EB32EEB
S1130C80C42ED52EA30192015695479537952795E5
S1130C902A0D3B1D4C1D5D1D57FF05C05F772F5F5F
S1130CA03F4F4F4F5F4F20932304309324044093CE
S1130CB0250450932604E9818E2F99278FBFCA01FA
S1130CC0B90129960FB6F894DEBF0FBECDBFDF91F0
S1130CD0CF911F910F91FF90EF90DF90CF90BF9035
S1130CE0AF909F908F907F906F905F904F903F90C8
S1130CF02F900895DF92EF92FF920F931F938FB777
S1130D00F894282F3327D22E91B782B746B7981775
S1130D1011F041FF02C02FBF68C0809148048823AE
S1130D20D1F10E94DC01E090290AF0902A0A009196
S1130D302B0A10912C0A2091A0013091A10140911D
S1130D40A2015091A3016E197F09800B910B6217C8
S1130D5073078407950728F01092480486EE71E023
S1130D601CC02E0D3F1D401F511F80918C0190917E
S1130D708D01A0918E01B0918F01281B390B4A0B74
S1130D805B0B273E31054105510528F4822F2230A3
S1130D9018F482E001C086EE70E0682F615000B65E
S1130DA001FCFDCF82B7681709F46F5F20918C01B5
S1130DB030918D0140918E0150918F01DA01C9016A
S1130DC00196A11DB11D860F911DA11DB11D821794
S1130DD09307A407B50710F4622F609561BFDFBEC7
S1130DE0772319F08AE00E9488011F910F91FF90E8
S1130DF0EF90DF900895AFB7F894BB27E1E0E0935C
S1130E0048046093290A70932A0A80932B0A9093CA
S1130E102C0A2093A0013093A1014093A201509386
S1130E20A301AFBF0E947A060895AC018FEF4F3F34
S1130E305807F1F03091320A20E018C0822F992728
S1130E40FC01EE0FFF1FE80FF91FEE0FFF1FE35326
S1130E50F04F808191818417950739F486E0289FAB
S1130E60C00111248353904F08952F5F231731F746
S1130E7080E090E0089580E88093A4011092150426
S1130E801092880E1092790E10920C040895CF934C
S1130E90DF93FC0115A6DC019E96ED011B821A82EC
S1130EA0198280E886A7DF91CF9108958FB7F894CF
S1130EB060915704709158042CB53DB506B602FEF6
S1130EC004C06F5F7F4F2CB53DB599278FBF88272E
S1130ED09927CB017727662744275527622B732B45
S1130EE0842B952B0895EF92FF920F931F930E94EA
S1130EF056077B018C0120913204309133044091D8
S1130F0034045091350480912D0490912E04A091C5
S1130F102F04B0913004820F931FA41FB51FE21653
S1130F20F3060407150730F082179307A407B507E3
S1130F3058F005C082179307A407B507E0F5E81633
S1130F40F9060A071B07B8F59C01AD012E193F09E4
S1130F50400B510B213060E8360760E0460760E043
S1130F60560768F180E090E8A0E0B0E0E80EF91ED2
S1130F700A1F1B1FE0923204F092330400933404DE
S1130F801093350480E090E8AFEFBFEFE80EF91E50
S1130F900A1F1B1F205030484040504020932D040E
S1130FA030932E0440932F045093300420E030E813
S1130FB040E050E014C020E030E040E050E0809396
S1130FC0320490933304A0933404B0933504109204
S1130FD02D0410922E0410922F0410923004A901B3
S1130FE0B7012CB53DB5C9018E199F090396841725
S1130FF0950720F0B9016D5F7F4F02C0640F751F24
S11310006115710511F461E070E0615070407BBDC1
S11310106ABD80E186BF87B7806187BF1F910F914A
S1131020FF90EF9008950F931F930FB7F894112733
S113103060933204709333048093340490933504A2
S113104020932D0430932E0440932F0450933004A6
S11310500E9473070FBF1F910F91089597B79F7D4B
S113106097BF90E296BF882319F08EB5806402C0C2
S11310708EB58F7B8EBD87B7806287BF80E090E09E
S113108008951F920F920FB60F9211248F9383B776
S113109083BF00B600FCFDCF8F910F900FBE0F9061
S11310A01F90189578941F920F920FB60F921124E7
S11310B00F900FBE0F901F90189578941F920F9267
S11310C00FB60F9211240F900FBE0F901F9018951A
S11310D078941F920F920FB60F9211242F933F937F
S11310E08F939F932FB7F89433278091570490914F
S11310F05804019690935804809357042FBF9F91EE
S11311008F913F912F910F900FBE0F901F901895C4
S11311101F920F920FB60F9211240F900FBE0F90D3
S11311201F9018951F920F920FB60F9211240F90D3
S11311300FBE0F901F9018951F920F920FB60F922B
S113114011240F900FBE0F901F9018951F920F92AD
S11311500FB60F9211240F900FBE0F901F90189589
S11311601F920F920FB60F9211240F900FBE0F9083
S11311701F9018951F920F920FB60F9211240F9083
S11311800FBE0F901F9018951F920F920FB60F92DB
S113119011240F900FBE0F901F901895ECEBF0E008
S11311A06927660FF11DE60FF11DC895982F802D54
S11311B03196C89590250895982F809159018823D8
S11311C081F5992371F531E03093590180910E0135
S11311D080935A0120914E01822F81708093B6032F
S11311E0809113019091140190935C0180935B01B1
S11311F080914F0180935D0132273170267EE32F69
S1131200FF27EE0FFF1FE15FFE4F808191819093D6
S1131210140180931301232B20934E0187E10E9434
S1131220880108950F931F93082F162F8091160499
S11312308130D9F0813038F0823009F44AC08330EB
S113124009F00EC159C0002309F43EC11092E00D0B
S11312501092DF0D1092050A1092EB0D10921A04F1
S113126010925A04109259041FC1002309F02CC192
S11312708091590490915A040E94CE0890935A0484
S11312808093590482E0809316041093EB0D143478
S113129009F0E6C00BC1869504C080914E01869585
S11312A08695817009F0DCC080914E01992311F07C
S11312B0846001C0826080934E0180914E01877EDC
S11312C0886080934E0110924F018FEF80930E013E
S11312D0FBC0002309F0C4C060931A048091590430
S11312E090915A040E94CE0890935A048093590412
S11312F083E080931604E8C08091050A8F3F09F4C7
S1131300AFC0002309F447C0823008F4A9C0E091BB
S1131310DF0DEE2309F4D1C04E2F4150E42FFF27F7
S1131320E152F24F82819927382F2227442311F466
S1131330E2E002C0E42FE150FF27E152F24F828144
S11313409927282B392B8091590490915A042817F6
S1131350390709F085C080E00E94DC0830911A0446
S11313608091490420914A04982F9F5F963008F099
S113137090E0921709F474C0E82FFF27E75BFB4F56
S113138032838F5F80934904863010F010924904B1
S11313900E94F10265C0823008F44EC0E091E00D75
S11313A0FF27E152F24F8281482F5527342F209195
S11313B04E01822F86958695869583709927813074
S11313C0910519F00297F9F40EC0277E206120934D
S11313D04E01442311F485E001C080E080934F0165
S11313E030930E0110C080914F01843360F4E0917A
S11313F01301F0911401E80FF11D408380914F0116
S11314008F5F80934F018091E00DE82FFF27E15219
S1131410F24F62818F5F8093E00D833010F0109261
S1131420E00D77278091590490915A040E94CE08C8
S113143090935A04809359048091DF0DE82FFF277D
S1131440E152F24F12838F5F8093DF0D833010F0EF
S11314501092DF0D8091050A8F5F8093050A34C0D6
S11314601092E00D1092DF0D109216041092050AEE
S11314701092EB0D10921A0410925A04109259040F
S113148080915E018D7F80935E0181E00E94DC0883
S113149080914D01882331F084E0809316040E94EA
S11314A0890212C0002381F081E023CF80914E0194
S11314B0982F917080FDEFCEF0CE8091E30D9927A7
S11314C0382F222742E036CF1F910F9108951F92A3
S11314D00F920FB60F9211242F933F934F935F9364
S11314E06F937F938F939F93AF93BF93EF93FF93E8
S11314F05F9B3DC06CB1E0915B04F0915C0430975C
S1131500F9F08091C60E9091C70EE80FF91F608321
S113151001969093C70E8093C60E209128113091A6
S113152029118217930718F110925C0410925B043E
S113153080910E098330D9F0579810920E0917C084
S11315406E3719F460E081E010C080915E016D3760
S113155021F4826080935E010AC081FF05C08D7F03
S113156080935E0180E2682780E00E941209FF9167
S1131570EF91BF91AF919F918F917F916F915F9107
S11315804F913F912F910F900FBE0F901F90189580
S1131590982F8D57823068F480915E01816080932A
S11315A05E0180E289278093040A8DE78093070413
S11315B002C09093070461E070E087E094E00E9429
S11315C0B4029927089578941F920F920FB60F9240
S11315D01124FF920F931F932F933F934F935F9385
S11315E06F937F938F939F93AF93BF93CF93DF9327
S11315F0EF93FF9320911704309118048091E60D26
S11316009091E70D2817390780F4E0913A04F0919E
S11316103B04E20FF31F80812F5F3F4F3093180488
S1131620209317040E94AD02D0C010923B04109284
S11316303A0410921904569880915E0180FF0EC0FE
S11316408E7F80935E018091040A8093070461E099
S113165070E087E094E00E94B402B7C08091FF0973
S1131660843009F494C0853040F4823021F1833011
S1131670B8F5813009F0A4C00DC0863009F495C0D6
S1131680863008F48BC0873009F496C0883009F09E
S113169097C099C0809131040E94C80A182F83E032
S11316A08093FF0960913104809124119091251158
S11316B00E94CE0810C080917D0E0E94C80A182F87
S11316C083E08093FF0960917D0E809124119091B5
S11316D025110E94CE0890932511809324116EC089
S11316E0FFB6F894E0915D04FF27EE0FFF1FEF5B58
S11316F0FB4F80810E94C80A082F10915D04C12FFE
S1131700DD27FE01EE0FFF1FEF5BFB4F6081809131
S11317102411909125110E94CE0890932511809355
S1131720241120912C042F5F20932C04113039F5BF
S113173080915501E0915001F0915101E80FF11DA4
S1131740E0818F5F8093550190915401981730F494
S113175082E08093420440E050E002C04E2F5527BF
S1131760DE01AA0FBB1FFD01E05CFB4F80818230CC
S113177031F02F3F21F0AF5BBB4F4C9303C084E0AB
S11317808093FF09102F8F2D99278FBF17C0809149
S113179024110E94C80A182F85E00BC080912511DE
S11317A00E94C80A182F86E004C00E94E102182F84
S11317B087E08093FF0902C088E003C0112329F069
S11317C089E08093FF090E94F102FF91EF91DF917C
S11317D0CF91BF91AF919F918F917F916F915F91C5
S11317E04F913F912F911F910F91FF900F900FBE3A
S11317F00F901F9018951F920F920FB60F921124FD
S11318008F9380919B0087FF02C080919C008F91F1
S11318100F900FBE0F901F90189578941F920F92FF
S11318200FB60F9211240F900FBE0F901F901895B2
S113183078941F920F920FB60F9211240F900FBE3F
S11318400F901F90189578941F920F920FB60F92D5
S113185011240F900FBE0F901F90189578941F922B
S11318600F920FB60F9211240F900FBE0F901F907E
S1131870189578941F920F920FB60F9211248F939C
S11318809F9380918800909189009F918F910F90F0
S11318900FBE0F901F90189578941F920F920FB659
S11318A00F9211242F933F938F939F932FB7F89404
S11318B03327809128049091290401969093290458
S11318C0809328042FBF9F918F913F912F910F9068
S11318D00FBE0F901F9018951F920F920FB60F9284
S11318E011242F933F934F935F936F937F938F9321
S11318F09F93AF93BF93EF93FF9383B783BF00B6D8
S113190000FCFDCF81B799270196AA27BB27209118
S11319108C0130918D0140918E0150918F01280FDF
S1131920391F4A1F5B1F20938C0130938D01409314
S11319308E0150938F0178940E947A06FF91EF9163
S1131940BF91AF919F918F917F916F915F914F91D3
S11319503F912F910F900FBE0F901F9018950F93EA
S11319601F93182F0FB7F89461E080E00E94600382
S1131970882371F510930201809105018823A9F54C
S113198080913701823089F586E00CC00E94A30360
S113199080913701882349F481E0809337011092C4
S11319A00D0488E00E9488012AC0809111048F3FB1
S11319B031F5E0910401EE2311F11CC010920301F2
S11319C004C0FF27EF5EFB4F10821092040117C082
S11319D081E090E002C0880F991F1A95E2F72091E8
S11319E03601282B209336010AC0809137018823C1
S11319F0E1F6CCCF809103018F3F19F7DFCF802F21
S1131A0099278FBF80E090E01F910F9108951F9355
S1131A1083E00E94B5039927182F882319F083E0E7
S1131A200E94AF0C812F99271F910895CF92DF92C6
S1131A30EF92FF920F931F93CFB6F894DD240E9488
S1131A40F105DC01CB0166E470E00E9498301BE0F4
S1131A50E12EF12CE80EF91EF0920411E09203112C
S1131A600E94560700271127A80197010E94130816
S1131A70CFBE1F910F91FF90EF90DF90CF9008950C
S1131A80AC01892BE9F020914C012431C9F02431B7
S1131A90A0F480914B01E82FFF27EE0FFF1FEC5CB1
S1131AA0F54F518340838F5F80934B01843111F450
S1131AB010924B012F5F20934C0181E10E94880119
S1131AC008958F929F92AF92BF92CF92DF92EF923E
S1131AD0FF920F931F93CF93DF934C015B010E94FE
S1131AE05F02EC01892B09F4AFC089E18987BCE06E
S1131AF0CB2ED12CCC0EDD1E81E0F601808FF501BA
S1131B00E280FF2400271127102F0F2DFE2CEE2436
S1131B102081332744275527522F44273327222750
S1131B2081819927AA27BB27DC0199278827282B9D
S1131B30392B4A2B5B2B83819927AA27BB27282B78
S1131B40392B4A2B5B2BE22AF32A042B152BFE019B
S1131B507096E382BB27A12F902F8F2D8283C8011B
S1131B60AA27BB278183E12EFF2400271127E88AB7
S1131B70B401645F7F4FFB01E280FF24002711273B
S1131B80102F0F2DFE2CEE24F40124853327442737
S1131B905527522F442733272227FB018181992778
S1131BA0AA27BB27DC0199278827282B392B4A2B06
S1131BB05B2B83819927AA27BB27282B392B4A2BF8
S1131BC05B2BE22AF32A042B152BFE017496E38285
S1131BD0BB27A12F902F8F2D8283C801AA27BB2753
S1131BE08183E12EFF2400271127EC8AF4018489E4
S1131BF09927982F882725893327822B932B8D8F1C
S1131C00892F99278C8FFB018089992789A318A292
S1131C108685F601868BF401818DF601878B0E94FF
S1131C20DC01F6016383272F382F492F55272283A0
S1131C309C01442755272183692F772788279927D3
S1131C406C87CE010E94400DC401DF91CF911F919A
S1131C500F91FF90EF90DF90CF90BF90AF909F9047
S1131C608F9008952F923F924F925F926F927F923E
S1131C708F929F92AF92CF92EF920F931F93CF9335
S1131C80DF93CDB7DEB724970FB6F894DEBF0FBE4F
S1131C90CDBF3B014C0119012A011A8309830E941B
S1131CA05F029C838B83892B09F463C089E1EB81F8
S1131CB0FC8181878F01045F1F4F83E0F801808FCF
S1131CC0EB81FC8170966382BB27A92D982D872D0B
S1131CD08283C401AA27BB278183892D9927AA2738
S1131CE0BB27EB81FC81808BEB81FC817496238282
S1131CF0BB27A52D942D832D8283C201AA27BB2740
S1131D008183852D9927AA27BB27EB81FC81848BAE
S1131D1029813A81C901AA27BB27EB81FC817896E6
S1131D208383892F9A2FAB2FBB2782831182EB8168
S1131D30FC81108E8E2D992781A310A2F801C68AEA
S1131D40A78A0E94DC01F8016383272F382F492FCB
S1131D50552722839C01442755272183692F772700
S1131D6088279927EB81FC8164878B819C810E9461
S1131D70400D24960FB6F894DEBF0FBECDBFDF91A1
S1131D80CF911F910F91EF90CF90AF909F908F9034
S1131D907F906F905F904F903F902F9008954F9257
S1131DA05F926F927F928F929F92AF92BF92CF92E7
S1131DB0DF92EF92FF920F931F93CF93DF93CDB7F0
S1131DC0DEB728970FB6F894DEBF0FBECDBF2B0148
S1131DD03C0129833A834B835C83ED82FE820F832B
S1131DE018870E945F027C01892B09F46EC089E187
S1131DF0F70181878701045F1F4F80E1F801808F1D
S1131E00F70170964382BB27A72D962D852D8283DB
S1131E10C301AA27BB278183872D9927AA27BB271C
S1131E20F701808B74962981238329813A814B8120
S1131E305C81BB27A52F942F832F8283CA01AA27F5
S1131E40BB278183852F9927AA27BB27F701848B7A
S1131E5078962D8123832D813E814F815885BB2720
S1131E60A52F942F832F8283CA01AA27BB2781839E
S1131E70852F9927AA27BB27F701808FC58E8D2D23
S1131E809927848FA78E8B2D9927868F81A2892DE0
S1131E90992780A38B8DF801868B8C8D878B0E946C
S1131EA0DC01F8016383272F382F492F552722831C
S1131EB09C01442755272183692F77278827992751
S1131EC0F7016487C7010E94400D28960FB6F89465
S1131ED0DEBF0FBECDBFDF91CF911F910F91FF9059
S1131EE0EF90DF90CF90BF90AF909F908F907F90B6
S1131EF06F905F904F9008952F923F924F925F9210
S1131F006F927F928F929F92AF92BF92CF92DF9205
S1131F10EF92FF920F931F93CF93DF93CDB7DEB76A
S1131F202C970FB6F894DEBF0FBECDBF69837A83BA
S1131F308B839C832D833E834F835887DA86C9869F
S1131F40BC86AB868AA18F9389A18F93AB84BC8412
S1131F50C984DA842D813E814F81588569817A81D3
S1131F608B819C810E94CF0E8AA18F9389A18F932C
S1131F70AB84BC84C984DA842D813E814F81588529
S1131F8069817A818B819C810E94CF0E0F900F9082
S1131F900F900F902C960FB6F894DEBF0FBECDBFF6
S1131FA0DF91CF911F910F91FF90EF90DF90CF9031
S1131FB0BF90AF909F908F907F906F905F904F9065
S1131FC03F902F900895FF920F931F93CF93DF9329
S1131FD0F82E0E945F02EC01892BF1F089E18987D8
S1131FE08E01045F1F4F8FE0F801808FF78A0E94F3
S1131FF0DC01F8016383272F382F492F55272283CB
S11320009C01442755272183692F772788279927FF
S11320106C87CE010E94400DDF91CF911F910F91EB
S1132020FF9008959F92AF92BF92CF92DF92EF926A
S1132030FF920F931F93962E0E940503282F8091E1
S11320400911281721F488E50E94E30F3BC03327C8
S1132050AFB6F894BB248BE090E0289F6001299FE1
S1132060D00C389FD00C112486EA91E0C80ED91EFA
S1132070F60164817581882799272AE530E040E0DC
S113208050E00E946D307B018C01292D332788EEAE
S113209093E0289FB001299F700D389F700D112483
S11320A0882777FD8095982F6E0D7F1D801F911FC7
S11320B024E630E040E050E00E94BF30F601358372
S11320C02483AFBE1F910F91FF90EF90DF90CF90CC
S11320D0BF90AF909F9008951F93182F0E94E30F15
S11320E0812F0E94E30F1F91089580913D01882361
S11320F009F445C08091EA0D8823C1F010928A0E3C
S11321001092890E80916F0481FD07C043E250E074
S113211060E070E081E00E94220290E0809146013C
S1132120882309F491E0992351F51EC080913E0162
S1132130882329F590E080914601882309F491E0F1
S1132140992351F08091890E90918A0E892B21F464
S113215080914201882361F080916F048D7F809388
S11321606F0481E080933E018EE00E94880108950F
S113217048E853E160E070E081E00E944102089584
S1132180CF92DF92EF92FF920F931F93CF93DF933F
S11321908C01F62E6A01E22E8FB7F894C82FDD2742
S11321A060E080E00E947A03882321F0CFBF80E0C2
S11321B090E01EC0CFBF0F0D111D802F80680E94BC
S11321C0F203F82E16950795802F807C0E94F20367
S11321D00E2D0AC0EE2DFF27E01BF109EC0DFD1DAD
S11321E080810E94F20301500023A1F78F2D9927CB
S11321F0DF91CF911F910F91FF90EF90DF90CF90DF
S11322000895CF93DF93CDB7DEB724970FB6F89434
S1132210DEBF0FBECDBF8FB7F894992720911B0462
S113222030911C042983232F33272A8320913604D9
S1132230309137042B83232F33272C838FBF24E043
S1132240AE014F5F5F4F60E088E691E00E94C010EE
S113225024960FB6F894DEBF0FBECDBFDF91CF91A9
S113226008951F93CF93DF93182F8FB7F894C82F37
S1132270DD2760E080E00E947A03882321F0CFBF4D
S113228080E090E005C0CFBF812F0E94F203992720
S1132290DF91CF911F91089583E00E943111992716
S11322A0089589E00E94311199270895EF92FF92D1
S11322B00F931F93CF93DF93182F7B01042F8FB7B6
S11322C0F894C82FDD2760E080E00E947A03882319
S11322D021F0CFBF80E090E014C0CFBF1064812F05
S11322E0992790933D0480933C040E94F203182F95
S11322F0402F5527B70180E090E00E946C04812FA5
S11323009927DF91CF911F910F91FF90EF9008953E
S1132310C09860915F017091600141E08FE30E9479
S11323205611089582E090E09093D1038093D003F6
S113233081E08093150420E030E080910201843034
S113234011F421E030E0232B29F484E00E94B5034A
S1132350882319F40E948811089584E00E94AF0C28
S113236008951F920F920FB60F9211242F933F934B
S11323704F935F936F937F938F939F93AF93BF9389
S1132380EF93FF938091D0039091D103019719F4B7
S11323900E94921105C080910C048F5F80930C04FD
S11323A0FF91EF91BF91AF919F918F917F916F9129
S11323B05F914F913F912F910F900FBE0F901F90FF
S11323C018951F9380913601882309F048C0109115
S11323D002011F3F09F043C060E00E947A03882392
S11323E0F1F181E08093D30D8091B7038823D1F17B
S11323F01092D30D85E090E043C0923059F5C09A15
S11324008091030190E08F3F09F491E09923E9F46E
S1132410109305018F3F19F42FEF30E00DC0282FE2
S11324203327F901EF5EFB4F8081809303018F3FD7
S113243011F410930401108320930D0481E0809320
S1132440370188E00E94880105C0109305011092AD
S1132450370111C080913701882369F00FC081E0F2
S113246090E00EC08091050190913701882329F2F4
S1132470923021F0EFCF80E00E94970380E090E05B
S11324801F9108951F93CF93DF939FB7F894C92F9B
S1132490DD271C2F90910201981721F0CFBF81E016
S11324A090E03AC08FEF80930201309136013323DC
S11324B0F1F48FB7F894992710922D0A8FBF0E94D8
S11324C0E111CFBF11C02093020181E090E002C06E
S11324D0880F991F4A95E2F7809538233093360187
S11324E086E00E9488011FBF80E090E015C080E074
S11324F065E0E32FFF270E948C30292F492F5527B1
S1132500CF01042E02C0959587950A94E2F780FDC9
S1132510DACF822F8F5FEFCFDF91CF911F91089594
S113252083E00E944212992708951F93CF93DF936B
S11325308FB7F894C82FDD271C2F8091D00390917A
S1132540D103892B29F484E00E944212CFBF1EC01C
S11325501092150480910C04882311F0B79904C0DB
S11325600E9908C0882319F0815080930C040E94AE
S113257092110BC081E090E09093D1038093D0033B
S113258010920C0484E00E9442121FBFDF91CF918D
S11325901F9108950E943B07C09AC09888E00E944A
S11325A0311188E00E943111C09A84E00E944212E5
S11325B00E9495120895FF920F931F93CF93DF9378
S11325C0F82E8B018FB7F894C82FDD2760E080E0E8
S11325D00E947A03882321F0CFBF80E090E00CC0F2
S11325E0CFBF8F2D0E94F203812F99270E94F203FF
S11325F0802F0E94F2039927DF91CF911F910F91B1
S1132600FF9008951F931FB7F89480910B048823BB
S113261019F460E070E009C060E080918F0E8823B7
S113262009F461E081E06827772780911F048823FB
S113263019F480E090E00AC090E08091330A882386
S113264009F491E081E09827892F9927762F66274E
S1132650770F770F770FE4E0880F991FEA95E1F77A
S1132660826E9262682B792B81E10E94DB12812FAA
S113267099278FBF1F9108958FB7F8949927609178
S11326805E0A8FBF85E0689FB0011124625D7E4FB2
S1132690706488E10E94DB120895EF92FF921F9309
S11326A0CF93DF93E0902004F0902104F70182A5FA
S11326B09927182F882309F415E0C09880910A04FB
S11326C0811749F0612F77276F717070606E7068A1
S11326D085E10E94DB1210930A04F70110818FB781
S11326E0F894C82FDD2760E080E00E947A038823F5
S11326F011F0CFBF12C0CFBF8EE390E090933D04A2
S113270080933C048EE30E94F2031150412F55271D
S113271060E070E0C7010E946C04DF91CF911F91CB
S1132720FF90EF900895FF920F931F93CF93DF9341
S1132730EA01F22E9CE1921718F482E090E092C034
S11327408B876E83872F99278F832FB7F89433272E
S113275080911B0490911C042FBF8C83892F99278F
S11327608D832FB7F8943327809106019091070148
S11327702FBF8887892F9927898761E082E00E948B
S11327806003882319F085E090E06CC08091D40D3B
S11327908F5F8093D40D81508B838FE38A878FB7AB
S11327A0F894082F112762E081E00E947A038823BD
S11327B029F40FBF0E948D0481E053C08FB7F894B1
S11327C0992724E020932E0A8FBFD0934704C09307
S11327D046040FBF8DE0F80EFE01F192898199271E
S11327E080729070898311828981992781649868A5
S11327F08983892F992781831CA618A619A61DA64B
S113280019AA18AA1FA680E88EA761E06093310A6E
S113281040914604509147048FB7F894282F3327EA
S113282080913801909139018830910511F0019718
S113283011F02FBF15C082E090E09093390180938E
S1132840380160930B11509321044093200410929B
S113285063012FBF0E94070D882311F40E944D13BA
S113286080E09927DF91CF911F910F91FF900895F8
S1132870CF93DF93582FFB01823018F081E090E072
S113288033C0C82FDD27CC0FDD1FCD5ADB4F888125
S11328909981892B19F085E090E026C079836883BB
S11328A0435F40834D5080910901823018F480E0E9
S11328B090E01AC0838567817727762F6627268163
S11328C03327622B732B50930901242FAF010E94ED
S11328D093139927282F882329F082E080930901F4
S11328E019821882822F9927DF91CF9108951F931F
S11328F0182F81E090E09093390180933801109271
S1132900B7030E94E1118FB7F8949927109332010D
S11329108FBF82E00E9488011F9108951F93CF9377
S1132920DF938FB7F894C82FDD271C2F80913801CF
S1132930909139010897C9F489E00E94311183E02C
S11329400E944212C09A81E090E0909339018093F2
S113295038018FB7F894992723E0209332018FBF71
S113296082E00E948801CFBF30C0C09880910B11D3
S1132970882311F085E001C084E00E94311183FDB9
S113298009C080E00E94311183FF04C085E090E01B
S113299020E003C083E090E021E09093390180932C
S11329A03801C09A1FBF222341F01092630183E0D3
S11329B00E9442120E94160D08C00E94560720E48D
S11329C031E040E050E00E941308DF91CF911F9165
S11329D0089578941F920F920FB60F9211242F929C
S11329E03F924F925F926F927F928F929F92AF929B
S11329F0BF92CF92DF92EF92FF920F931F932F9388
S1132A003F934F935F936F937F938F939F93AF9372
S1132A10BF93EF93FF93CF93DF93CDB7DEB72B979D
S1132A20F894DEBF7894CDBF2CB53DB53B872A879B
S1132A3080E286BF0E9456079B01AC018A859B8574
S1132A407C0100271127DA01C901A070B0708E152E
S1132A509F05A007B10798F4612C712C7FEF872E96
S1132A607FEF972E620E731E841E951E80E090E009
S1132A70AFEFBFEF682279228A229B220AC0612C21
S1132A80712C6FEF862E6FEF962E622273228422B2
S1132A9095226E287F28802A912A8FB7F8948983FB
S1132AA080913801909139018530910521F0069784
S1132AB009F0B9C098C086E090E090933901809302
S1132AC0380191E09093140480E00E942E08209134
S1132AD0200430912104F90161AABB27A92D982D66
S1132AE0872D8A839B83AC83BD8380ABC401AA27D3
S1132AF0BB278E839F83A887B98787A7292C332474
S1132B004424552426A6E0912004F091210485A5AF
S1132B10882309F447C0608165507727E60FF71FC3
S1132B202081E1808281A3809927AA27BB27BA2F1D
S1132B30A92F982F8827332744275527522F442716
S1132B4033272227FF24002711278701FF24EE249F
S1132B502E293F29402B512BBB24CC24DD242A29A8
S1132B603B294C295D29822B932BA42BB52B861949
S1132B709709A809B9098383292F3A2F4B2F552781
S1132B8022839D014427552721838B2F9927AA2728
S1132B90BB278083C09824E0AF0180E090E00E94CE
S1132BA0C010C09AE0912004F0912104818185FF36
S1132BB003C091E09093B70383E00E94421287B769
S1132BC08F7E87BFA0912004B0912104FD018181F3
S1132BD08770813031F461AA2A8120AB3E8137A706
S1132BE026A684996DC01092140481E00E942E08D8
S1132BF0E0912004F0912104818185FF0FC087E0DA
S1132C0090E090933901809338010E94560720E0A8
S1132C1031E040E050E00E94130803C080E00E94CD
S1132C207714849B4DC080913A01882349F511E0C3
S1132C30109314040E942E088091790E883098F421
S1132C40E091880EE80FFF27E770F070EE0FFF1F8A
S1132C50EE0FFF1FEF50F24F6082718282829382E7
S1132C608F5F8093790E10933A018A859B859093A8
S1132C703F0480933E04849B03C099819FBF22C07C
S1132C801092140481E00E942E0810923A0180915F
S1132C903E0490913F04AA85BB85A81BB90B1A97E3
S1132CA078F48091790E882319F081508093790EFD
S1132CB08091200490912104009711F00E9447070D
S1132CC0B981BFBF2B96F894DEBFCDBFDF91CF9102
S1132CD0FF91EF91BF91AF919F918F917F916F91F0
S1132CE05F914F913F912F911F910F91FF90EF9022
S1132CF0DF90CF90BF90AF909F908F907F906F9018
S1132D005F904F903F902F900F900FBE0F901F90A9
S1132D10189578941F920F920FB60F9211241F9357
S1132D202F933F934F935F936F937F938F939F93CF
S1132D30AF93BF93EF93FF9387B78F7E87BF78944A
S1132D401FB7F89480912D0490912E04A0912F0424
S1132D50B09130040097A105B10509F051C08091EC
S1132D603801909139018530910561F186309105E2
S1132D7030F48330910549F0049781F51AC0873007
S1132D809105F1F0089751F514C0869B0FC084E0BB
S1132D9090E090933901809338010E94560727E010
S1132DA030E040E050E00E94130818C00E94160D65
S1132DB015C00E94070D882389F40E948E140EC04A
S1132DC080E00AC089E00E94311181E00E942E084F
S1132DD083E00E94421287E00E94771480913301BD
S1132DE090913401019771F482E090E09093340162
S1132DF080933301DE98DE9A80E00E94AF0C02C01B
S1132E000E947307812F99278FBFFF91EF91BF9184
S1132E10AF919F918F917F916F915F914F913F916E
S1132E202F911F910F900FBE0F901F90189561E086
S1132E3081E00E9460038823E9F48FB7F894282F77
S1132E4033278091330190913401892B11F02FBFE6
S1132E5020C081E090E090933401809333012FBF30
S1132E60DD9A0E94560724E130E040E050E00E94E1
S1132E7013080FC062E081E00E947A03882319F0EE
S1132E8089E090E0089561E081E00E947A0388235C
S1132E9019F080E090E0089585E090E00895EF92C5
S1132EA0FF920F931F93CF93DF930FB7F8941127DB
S1132EB081E00E942E08E1E0EE2EF12CF09239011F
S1132EC0E092380110923A011092B70310920A046A
S1132ED00FBF0FB7F89411270E943B07F092D1035C
S1132EE0E092D0031092150489B78F7B89BF80E4E8
S1132EF088BF8AB780628ABF8AB78F7E8ABF89B744
S1132F00806489BF0FBF8FB7F894C82FDD278091E5
S1132F10330190913401049719F483E00E94311134
S1132F20CFBF0FB7F8941127C09A80E00E944212D5
S1132F300FBF8FB7F894992722E020932E0A8FBFF2
S1132F4001E000933F010E947510809143018823A2
S1132F5011F40093430100933D0148E853E160E01C
S1132F6070E081E00E944102809100019091010192
S1132F70019721F4D89AD99ADA9803C0D89AD99AA1
S1132F80DA9A209122013091230140912401509139
S1132F9025018091260190912701A0912801B091EB
S1132FA02901281739074A075B0759F40E94DC01F5
S1132FB0609322017093230180932401909325014F
S1132FC02AC00E94DC016093220170932301809344
S1132FD024019093250120912601309127014091ED
S1132FE0280150912901621B730B840B950B2091CE
S1132FF01E0130911F014091200150912101260FA3
S1133000371F481F591F20931E0130931F014093FF
S1133010200150932101DF91CF911F910F91FF90D7
S1133020EF900895EF92FF920F931F93CF93DF9346
S11330308B0180913C0490913D0486FF2AC18F7BD3
S11330408F3309F078C1C0915F01D091600158813C
S1133050509306048091D0039091D103833091055D
S113306009F443C08430910509F48AC0029709F039
S113307009C183E090E09093D1038093D003409101
S1133080A401852F99270196242F33272817390760
S11330904CF1B79906C00E9904C0451B41504093AA
S11330A0A401409106044A32E8F44423A1F0BE018D
S11330B06F5F7F4F483018F047E050E007C084E06E
S11330C090E09093D1038093D003552780E090E063
S11330D00E946C0430C110921504C09A84E00E94CE
S11330E04212CDC00E94CA1226C184E090E090939F
S11330F0D1038093D00380911F04882309F439C03D
S11331008091330A8823A9F5898185FF32C08F8194
S11331104E812FB7F89433276091360470913704A9
S11331202FBF9927982F88275527842B952B8617EF
S1133130970759F08F812E819927982F8827332755
S1133140822B932B8F5F9F4FA1F4898187708130ED
S113315081F4C09AC0988AE00E943111C09AC09844
S11331604091060447502896BE018FE30E945611F1
S1133170E2C040910604475055272896BE01A6CFC9
S1133180C09A80910C04882319F484E00E944212AE
S11331908091790E8823A1F1809106048B30B0F1DF
S11331A0E091880EFF27EE0FFF1FEE0FFF1FEF5079
S11331B0F24F2081318142815381E0915F01F0918E
S11331C0600121ABBB27A52F942F832F80ABCA01AD
S11331D0AA27BB2787A7252F33274427552726A7A8
S11331E08091880E9927019668E070E00E94AC30C7
S11331F08093880E8091790E81508093790E06C059
S113320080915F01909160010E94470780910604BC
S1133210FE01E80FF11D808187FF31C0012B79F198
S113322069816770E0915F01F0916001623019F586
S1133230A0912004B0912104109709F180913801E4
S1133240909139010797D9F4ED019B8183819817F7
S1133250B1F487B78F7E87BF908181E08CA7E90F97
S1133260F11D8291319688A780818F7789A780E0AC
S11332700E94771404C0613011F489E02AC00E94CE
S1133280951259C010921504C09A84E00E9442120B
S113329052C08E3309F04FC0C09A8091380190918A
S11332A039010897C9F4C09889E00E943111C09A85
S11332B083E00E94421281E090E090933901809370
S11332C038018FB7F894992723E0209332018FBFF8
S11332D082E00E9488012FC080910B11882349F459
S11332E084E090E090933901809338010E948E1419
S11332F022C083E00E94421283E090E0909339015F
S1133300809338010E94F105DC01CB0166E371E092
S11333100E949830FBE0EF2EF12CE80EF91EF0929B
S11333209F01E0929E010E94560700271127A801E1
S113333097010E941308DF91CF911F910F91FF9085
S1133340EF9008951F920F920FB60F9211242F93AE
S11333503F934F935F936F937F938F939F93AF9319
S1133360BF93EF93FF932FB1E091FC04F091FD0420
S1133370309739F08091510490915204E80FF91F6D
S113338020838091510490915204019690935204A9
S11333908093510480E00E949D034091610150910B
S11333A0620180915104909152048417950718F496
S11333B00E94FE031CC06091FC047091FD04809186
S11333C0900E9091910E1092FD041092FC041092B4
S11333D0910E1092900E109262011092610110925F
S11333E05204109251042FB120E00E941218FF9150
S11333F0EF91BF91AF919F918F917F916F915F9169
S11334004F913F912F910F900FBE0F901F901895E1
S1133410EF92FF920F931F93CF93DF93EC018B01F5
S1133420F42EE22E0E941507FC01892B41F58091B0
S1133430320A803349F488E30E94E30F88E30E9450
S1133440E30F81E090E025C02FB7F8943327409133
S1133450320A842F9927FC01EE0FFF1FE80FF91F92
S1133460EE0FFF1FE353F04FD183C0831383028316
S1133470F482E5824F5F4093320A2FBF08C08FB7B2
S1133480F894992713830283F482E5828FBF80E046
S113349090E0DF91CF911F910F91FF90EF900895ED
S11334A02F923F924F925F926F927F928F929F9250
S11334B0AF92BF92CF92DF92EF92FF920F931F933E
S11334C0CF93DF93CDB7DEB726970FB6F894DEBF60
S11334D00FBECDBF80902A0490902B0481149104D8
S11334E031F0F401A188B288A816B90639F080E356
S11334F00E94E30F80E30E94E30F5DC1662309F09D
S113350042C0F50184A5882309F041C08781268142
S11335109927182F00273327022B132BC8010E9449
S11335200503803321F48FEA0E94E30F2CC099270E
S11335302BE030E0829F3001839F700C929F700CCF
S1133540112426EA31E0620E731EF3018285813074
S1133550D1F484EA8F930F9388249924AA24BB245A
S1133560CC24DD24EE24FF24870120E030E040E079
S113357050E060E070E080E090E00E94CF0EF30144
S113358012860F900F908EE00E94880114C10E9451
S113359029037B018C01F401208531854285538503
S11335A0DC01CB01821B930BA40BB50B8050904024
S11335B0A140B04020F01FEF412E512E03C027013F
S11335C0421A530AF501878126819927982F882763
S11335D03327F4016389822B932B0E941210F40188
S11335E0A189B289FD01878126819927782E6624D5
S11335F03327622A732AC3010E940503282F80916E
S11336000911281709F47DC04114510419F4F1E09B
S11336104F2E512CEFB6F894FF2433278BE090E023
S1133620289F8001299F100D389F100D11240A55E1
S11336301E4FF801C280D380960144275527CA0142
S1133640B901E3E0660F771F881F991FEA95D1F748
S1133650620F731F841F951F920144275527620F21
S1133660731F841F951F2AE030E040E050E00E9461
S1133670BF30F80133832283EFBEE480F5800281FA
S113368013810E945F021C01892BD9F189E1F101A8
S1133690818784E084A3C701AA27BB27838B892F52
S11336A09A2FAB2FBB27828B118A108A178A168A0E
S11336B0158A148A138E128E118E108EC58E8D2D3E
S11336C09927848F478E852D9927868F01A3812F73
S11336D0992780A312A263A20E94DC01F1016787EB
S11336E0272F382F492F552726879C0144275527F4
S11336F02587692F7727882799276487C1010E9426
S1133700400DF401818992890E942C03882331F0B1
S113371087E30E94E30F87E30E94E30FC4010E9442
S11337204603882331F088E30E94E30F88E30E9474
S1133730E30F1092420110923E01F501C38C2C2D2F
S113374033273C832B83908D818DE92EFF24FE2C1F
S1133750EE249927F701E82BF92BFE83ED832091C2
S11337604001309141013A832983609046017724D6
S11337702090890E30908A0E260C371C4424552440
S1133780882477FC8094982CE1E0AE2ECB80ED80E9
S11337908901A2019101C401B3010E94320ECB80C0
S11337A0ED8009811A81A2019101C401B3010E9433
S11337B0320E0E94751026960FB6F894DEBF0FBE27
S11337C0CDBFDF91CF911F910F91FF90EF90DF90CC
S11337D0CF90BF90AF909F908F907F906F905F90AD
S11337E04F903F902F900895FF920F931F93CF9384
S11337F0DF93082FEB01F42EE82FFF27EE0FFF1FB6
S1133800ED5AFB4F1182108280910901992701968C
S113381062E070E00E94AC30682F8093090110E0F0
S1133820462F5527FA01EE0FFF1FED5AFB4FA081DB
S1133830B181109799F0E62FE695E695E695FF2776
S1133840E557F14F808199279A012770307002C0A3
S1133850959587952A95E2F780FF0DC0CA010196D8
S113386062E070E00E94AC30682F1F5F1230C1F636
S11338701093090119C0609309016230A8F42C91D6
S11338802D503327FD0167817727762F66278681A0
S11338909927682B792BAD0183850E949313882384
S11338A019F080E10E948801002319F0013059F4D5
S11338B005C06F2DCE010E94501A05C0C151DE40D3
S11338C011F410923C01DF91CF911F910F91FF9061
S11338D00895CF93DF938091460199274091440442
S11338E02CE030E0241B31098217930731F08AE37E
S11338F00E94E30F8AE30E94E30F909146019B30FC
S1133900C9F580914501E82FFF27EE0FFF1FE35112
S1133910FF4EC081D181992369F0923040F08A3002
S113392019F41092450103C08F5F809345019150B3
S11339309093460189899A890E942C03882331F047
S113394089E50E94E30F89E50E94E30FCE010E94FE
S11339504603882331F089E30E94E30F89E30E9440
S1133960E30F8091890E90918A0E019690938A0EAE
S11339708093890EDF91CF9108952F923F924F92B9
S11339805F926F927F928F929F92AF92BF92CF92EB
S1133990DF92EF92FF920F931F93CF93DF93CDB7F4
S11339A0DEB764970FB6F894DEBF0FBECDBFA0910B
S11339B05F01B09160011C919D01210F311DF9013E
S11339C08081881F8827881FFD0183A7F9018081D2
S11339D08F77FD0181A721503040F9018081FD01DD
S11339E080A7E0915F01F09160018FB7F894992767
S11339F020910B048FBF2223F9F0878146812FB7D2
S1133A00F894332760913604709137042FBF9927B7
S1133A10982F88275527842B952B8617970761F0B5
S1133A20878126819927982F88273327822B932BE8
S1133A308F5F9F4F09F0FEC21D3008F4FBC2209037
S1133A405F01309060013E862D86F10182858F33BF
S1133A5009F0DAC2818520859927582F4427332716
S1133A60422B532B63818FEF80938D0E8FB7F89485
S1133A70782F20E030E0E2E9F1E080819181841741
S1133A80950731F48281861709F49FC220938D0E25
S1133A902F5F3F4F33962430310579F77FBF9091E4
S1133AA08D0E3FB7F8949F3F21F080913B01891719
S1133AB099F420913B01822F9927FC01EE0FFF1FFF
S1133AC0E80FF91FEE56FE4F5183408362832F5F48
S1133AD0237020933B010CC0892F9927FC01EE0F22
S1133AE0FF1FE80FF91FEE56FE4F51834083628398
S1133AF0832F99278FBFF10183A5882309F484C2FA
S1133B001D50878146812FB7F894332760910601B1
S1133B10709107012FBF9927982F88275527842B49
S1133B20952B8617970761F0878126819927982F0F
S1133B3088273327822B932B8F5F9F4F09F06BC20B
S1133B40BCE0AB2EB12CA20CB31CF10183859927E8
S1133B50803921F0813909F057C217C0123009F0B9
S1133B6053C2F10181854085648525857727762FA9
S1133B7066273327622B732B9927982F882755277D
S1133B80842B952B0E94A3053FC20E9429032B017D
S1133B903C011D3128F080E50E94E30F80E547C217
S1133BA0F10191848084E688C788C1010E941D05C3
S1133BB0FF24FE2CEE24DD24EC28FD280027112709
S1133BC02091E80D3091E90D3A8B298B6E157F0514
S1133BD08007910709F446C040900E0450900F04EA
S1133BE00894411C511C50920F0440920E04662408
S1133BF0772420911D0430911E04C901AA27BB27F4
S1133C0089879A87AB87BC876091900170919101F5
S1133C10CB01AA27BB278D839E83AF83B88770E926
S1133C20372E3F921F9288249924AA24BB24C98842
S1133C30DA888301720129853A854B855C856D811B
S1133C407E818F8198850E94CF0E3F921F92C988F2
S1133C50DA8829853A854B855C856D817E818F81E3
S1133C60988564C0892D9927182F0027882D9927B6
S1133C70082B192BA989BA891196B093E90DA09341
S1133C80E80DC8010E941507AC01F101608DD18CCB
S1133C90892B51F4228D438D332755277727762F8F
S1133CA066278D2D992755C0D101589639E1E32E09
S1133CB0F12CE20CF31C862F9927982F88272D2DA1
S1133CC03327822B932BFA0122813381281739075A
S1133CD0A1F5F101938DFA018481891771F5F10140
S1133CE0928DFA018581891741F513E8712E7F922F
S1133CF01F9288249924AA24BB24CC24DD24EE24F6
S1133D00FF24870120E030E040E050E060E070E014
S1133D1080E090E00E94CF0E7F921F9220E030E07E
S1133D2040E050E060E070E080E090E00E94CF0E60
S1133D300F900F900F900F9067C1F501268547856E
S1133D406C91D7018C91332755277727762F6627D7
S1133D509927682B792BC8010E94081AF501648100
S1133D6085817727762F66279927682B792BC801B9
S1133D700E94A305F50186858F5F86878091EA0DF1
S1133D80882381F0D1010C9101521127602FC101C8
S1133D900E94B104402FBC01C1010E94610D9E87A5
S1133DA08D8732C10E94691C90E08091450488236C
S1133DB009F491E0992329F080E70E94E30F80E75A
S1133DC036C190E080914404882309F491E099235A
S1133DD029F081E70E94E30F81E729C10E94BD0415
S1133DE04C01892B29F482E70E94E30F82E71FC16B
S1133DF00E94DC049A838983892B89F483E70E94D7
S1133E00E30F83E70E94E30FC4010E944603882363
S1133E1009F4FAC084E70E94E30F84E708C184E34D
S1133E20E981FA8111928A95E9F728E230E0220EBD
S1133E30331E8CE0D1011D928A95E9F7E8EDFFEF7E
S1133E402E0E3F1EF401328A218A82E0808B448246
S1133E50558266827782138A1086118612861386AB
S1133E60F1018485E5842685A784332744275527D3
S1133E70542F432F322F22279927AA27BB27B82F45
S1133E80AA2799278827FF24002711278701FF24C1
S1133E90EE248E299F29A02BB12BBB24CC24DD2416
S1133EA08A299B29AC29BD29282B392B4A2B5B2B2A
S1133EB0D4012D933D934D935C931397C4010E94B9
S1133EC0FB04882309F047C0F101C38C2C2D332750
S1133ED0388B2F87208D818DE22EFF24FE2CEE243B
S1133EE09927D701A82BB92BBC8BAB8BE091400150
S1133EF0F0914101FC83EB83609046018091420183
S1133F00680E712C711C2090890E30908A0E260C3C
S1133F10371C44245524882477FC8094982C53E03F
S1133F20A52ECF84EB888F01A2019101C401B301B6
S1133F300E94320ECF84EB880B811C81A201910177
S1133F40C401B3010E94320E0E94751029813A8186
S1133F503E872D8759C089E40E94E30F89E40E94BB
S1133F60E30F89819A810E942C03882331F085E72D
S1133F700E94E30F85E70E94E30FC4010E944603F9
S1133F80882309F441C086E70E94E30F86E74FC007
S1133F901D3128F086E30E94E30F86E348C0809138
S1133FA04901853089F190E080914504882309F422
S1133FB091E0992349F50E94DC048C01892B39F4A2
S1133FC08BED0E94E30F8BED32C07FBF1DC090913B
S1133FD04901953028F580914801E82FFF27EE0F1D
S1133FE0FF1FEB52F24F318220828F5F8093480192
S1133FF0853011F4109248019F5F909349018DE040
S11340000E9488011E870D878D859E85909360018F
S113401080935F010FC0F10183858139A9F7B8CF7F
S1134020C8010E942C0387E50E94E30F87E50E94E4
S1134030E30FEACF8FB7F8949927109215048FBF36
S11340400E94951264960FB6F894DEBF0FBECDBFE2
S1134050DF91CF911F910F91FF90EF90DF90CF9060
S1134060BF90AF909F908F907F906F905F904F9094
S11340703F902F9008952F923F924F925F926F92AC
S11340807F928F929F92AF92BF92CF92DF92EF92E4
S1134090FF920F931F93CF93DF93CDB7DEB726978D
S11340A00FB6F894DEBF0FBECDBF3B014C014424D4
S11340B05524EEE5F4E0C42C608561FF8AC22081BA
S11340C0318142815381E480F58006811781D401D6
S11340D0C301821B930BA40BB50B8E159F05A00780
S11340E0B10708F476C260FF03C06D7F608708C023
S11340F02E0D3F1D401F511F208331834283538364
S113410022E0C21649F12C1528F031E0C31609F05B
S113411069C208C084E0C81659F195E0C91609F0CF
S113412061C241C280916F0480FF07C048E853E137
S113413060E070E081E00E9441028FB7F894282F7C
S1134140332780913C01882329F4C0923C012FBF7E
S11341508CE00BC02FBF46C280913E01882309F03A
S113416041C281E080933E018EE00E9488013AC200
S11341706624772443010E94F1051B012C0171E0A0
S1134180E72EF12C012D112D0E94F1050894E11C5C
S1134190F11C011D111D2616370648065906A0F705
S11341A0C70181709070892B31F00894611C711CD7
S11341B0811C911CE0CF8FB7F8949927A0900A0135
S11341C0B0900B01C0900C01D0900D018FBFC401C1
S11341D0B301A60195010E946D307B018C01C201DF
S11341E0B1010E94BF30E60EF71E081F191FB80167
S11341F0A70184E00E94220264E082E99EE00E941A
S1134200B104FC0115E21093920E2FB7F8943327F2
S113421080910601909107012FBF8093AB0E892FE7
S113422099278093AA0E80912A0190912B01A09145
S11342302C01B0912D018383292F3A2F4B2F552721
S113424022839D014427552721838B2F9927AA2751
S1134250BB2780830E9429033B014C0180913D01CF
S1134260882319F404E010E001C11093920E109217
S1134270AC0E80910001909101018093AB0E892FC7
S113428099278093AA0E80918E0E8F5F80938E0E55
S113429081508093AD0E1092A10E1092A00E109238
S11342A09F0E10929E0E1092A70E1092A60E81E001
S11342B08093AE0E0E94691C90E08091450488238F
S11342C009F491E0992329F08DE50E94E30F8DE52F
S11342D00CC090E080914404882309F491E0992370
S11342E049F08FE50E94E30F8FE50E94E30F05E09C
S11342F010E0BCC00E94BD047C01892B29F48BE52D
S11343000E94E30F8BE5AEC00E94DC048C01892B74
S113431081F4C7010E944603882331F08CE50E9492
S1134320E30F8CE50E94E30F8DE50E94E30F8DE51A
S113433099C084E3D8011D928A95E9F7EAEBFEE07F
S11343408CE0DF011D928A95E9F7D801B89784E3E0
S113435001900D928150E1F7F701128B018B81E0FE
S1134360808B6482758286829782138A1086118676
S113437012861386D7011D921D921D921C921397CB
S1134380C7010E94FB04882309F04CC0C090AD0E05
S1134390EC2DFF27FC83EB838091AA0EE82EFF24EB
S11343A0FE2CEE248091AB0E99279701282B392BF4
S11343B03E832D8380914001909141019A838983AA
S11343C06090460180914201680E712C711C20900E
S11343D0890E30908A0E260C371C442455248824D8
S11343E077FC8094982C02E0A02ECB80ED8009818C
S11343F01A81A2019101C401B3010E94320ECB8043
S1134400ED8009811A81A2019101C401B3010E94C6
S1134410320E0E9475100E945F028C01892B09F0F4
S11344206DC0ADC08AE40E94E30F8AE40E94E30FEA
S1134430C8010E942C03882331F08CE50E94E30F0D
S11344408CE50E94E30FC7010E944603882331F0E4
S11344508DE50E94E30F8DE50E94E30F8BE40E943B
S1134460E30F8BE40E94E30F01E010E00E945F027F
S11344707C01892B09F4B6C089E1F701818788E0C2
S113448084A380912A0190912B01A0912C01B091D9
S11344902D01838B292F3A2F4B2F5527228B9D01DA
S11344A044275527218B8B2F9927AA27BB27808B3D
S11344B0178A168A158A148A138E128E118E108EFC
S11344C0158E148E178E168E11A210A212A203A39B
S11344D00E94DC01F7016787272F382F492F5527C2
S11344E026879C01442755272587692F7727882706
S11344F099276487C7010E94400D74C089E1F801BF
S1134500818782E084A380912A0190912B01A0915C
S11345102C01B0912D01838B292F3A2F4B2F552736
S1134520228B9D0144275527218B8B2F9927AA275E
S1134530BB27808B178A168A158A148A138E128ECB
S1134540118E108E158E148E178E168E11A210A237
S113455012A213A20E94DC01F8016787272F382FCB
S1134560492F552726879C01442755272587692FDE
S11345707727882799276487C8010E94400D809176
S11345802A0190912B01A0912C01B0912D0101964B
S1134590A11DB11D80932A0190932B01A0932C019E
S11345A0B0932D011FC0809130019091310101968B
S11345B09093310180933001809100019091010129
S11345C0019721F481E08093EA0D0CC01092EA0D6A
S11345D009C00894411C511C399626E04216510426
S11345E009F069CD8BE00E94880126960FB6F894F5
S11345F0DEBF0FBECDBFDF91CF911F910F91FF9012
S1134600EF90DF90CF90BF90AF909F908F907F906E
S11346106F905F904F903F902F9008952F923F920C
S11346204F925F926F927F928F929F92AF92BF92BE
S1134630CF92DF92EF92FF920F931F93CF93DF936A
S1134640CDB7DEB729970FB6F894DEBF0FBECDBF46
S1134650E82FFF27E831F10510F00C947B2CEA5B7E
S1134660FF4FEE0FFF1F0590F491E02D0994809108
S11346708B0E882311F40C947B2C10E001E0BAC655
S11346800E944F170C947B2C8FB7F89499271092A3
S11346902E0A8FBF10923F012091220130912301F5
S11346A04091240150912501809126019091270188
S11346B0A0912801B0912901281739074A075B07FF
S11346C061F40E94DC0160932601709327018093BA
S11346D02801909329010C947B2C0E94DC016093A7
S11346E0260170932701809328019093290120913A
S11346F02201309123014091240150912501621B34
S1134700730B840B950B20911A0130911B0140917E
S11347101C0150911D01260F371F481F591F20935C
S11347201A0130931B0140931C0150931D010C94FA
S11347307B2C8FB7F8949927F09032018FBF83E0D8
S11347400E949103882351F10FB7F8941127109216
S113475039011092380187B78F7E87BF87B78F7D65
S113476087BF0E949012C09A0FBF0FB7F894112709
S11347701092D1031092D0030E943B07C09A89B7CC
S11347808F7B89BF0FBF1092340110923301DE98E2
S1134790DD98DE9A81E00E94880107C08FB7F89403
S11347A0992722E020932E0A8FBF0091460410918E
S11347B047040E948D0480910901823010F00C940A
S11347C07B2CE82FFF27EE0FFF1FED5AFB4F608174
S11347D071816017710711F00C947B2C4F2D40C62A
S11347E08FB7F894282F3327122F8091051188232F
S11347F009F581E080930511809133019091340192
S1134800049721F481E00E94AF0C02C00E94AF0122
S11348101FBF0C947B2C8FB7F89499271092051125
S11348200C94712C8FB7F894282F3327809135017D
S1134830882319F02FBF0C947B2C2FBF80B39927AA
S113484036E0969587953A95E1F7182F1170909177
S11348503804809139048917D9F01917C9F484E010
S113486090E090933401809333018FB7F8949927A3
S113487021E0209335018FBF60E070E08DE10E945C
S1134880DB120E940111C09AC09880E00E94880146
S1134890109339040E94B4010C947B2C8FB7F894C4
S11348A09927209102018FBF223009F463C023307D
S11348B038F4222369F0213011F00C947B2C44C08D
S11348C0233009F472C0243011F00C947B2C9CC06A
S11348D0C0988FB7F894082F1127809133019091D5
S11348E03401029771F583E090E090933401809352
S11348F0330168E170E08DE10E94DB1281E0809376
S113490038041092350180B3992726E0969587954F
S11349102A95E1F781709070809339040E94B40164
S113492081E00E9431116FE772E08CE10E94DB129A
S11349300E943C130E94021366E57AE287E10E941A
S1134940DB120FBF0C947B2CC09886E00E943111BF
S11349500E943C130E9402130E940111C09AC09845
S11349600E944C11C09A81E00E9442120E94AF0141
S11349700C947B2CC0988FB7F894082F11270E94B1
S11349808B03882311F00FBF0AC00FBF83E50E9479
S1134990F20380E00E94F20380E00E94F203C09AD6
S11349A082E00E9442120C947B2C8FB7F8949927D2
S11349B0209138018FBF243041F0283051F022304B
S11349C001F50E944D130C947B2C0E948E140C94C0
S11349D07B2CC0980E945111C09A0E9490122FB74C
S11349E0F894332781E090E0909339018093380163
S11349F02FBF63E080912004909121040E94B901AB
S1134A007AC70E94901277C70E94881174C70FB7A3
S1134A10F894112740916101509162016091FC0466
S1134A207091FD048091900E9091910E1092FD046E
S1134A301092FC041092910E1092900E109262014A
S1134A4010926101109252041092510420E00E94CD
S1134A50121877CF2FB7F894332780910D048093E1
S1134A60050182E0809337012FBF809105018823DF
S1134A7009F041C7B89AC0980E94C3013CC70E947C
S1134A80BD1C39C780910904882361F52091EC0D80
S1134A903091ED0D4091EE0D5091EF0DEFB7F8947C
S1134AA0FF276091290A70912A0A80912B0A90911C
S1134AB02C0AE090A001F090A1010091A2011091B4
S1134AC0A3016E0D7F1D801F911FEFBF2093EC0D7E
S1134AD03093ED0D4093EE0D5093EF0D10920904B9
S1134AE00E94FB060E94DC013FC00E94DC015B01C6
S1134AF06C018FB7F8949927109248048FBF2FEF59
S1134B003FEF4FEF5FE760E0EEE5F4E0808581FF83
S1134B101CC080819181A281B38186017501E81A4C
S1134B20F90A0A0B1B0BD801C701E480F580068142
S1134B301781E81AF90A0A0B1B0BE216F30604079D
S1134B4015071CF4A801970161E0399604E0E439E3
S1134B50F007E1F6662309F4CEC61216130614060E
S1134B6015062CF0C601B5010E943B20C4C6209353
S1134B70EC0D3093ED0D4093EE0D5093EF0D81E06D
S1134B8080930904C601B5010E94FB06B4C6809156
S1134B90460120914201820F912D911D2091890E91
S1134BA030918A0E820F931FE091000AF091010A5E
S1134BB08183892F992780836FEF7FEF81E19EE0C6
S1134BC00E949D0580E980931C0E42E061E17EE035
S1134BD081E00E9438149927882309F48CC6843014
S1134BE011F410923F010E94C80185C690E08091A3
S1134BF04901882309F491E0992309F07CC6E091E6
S1134C004701FF27EE0FFF1FEB52F24F0190F08197
S1134C10E02DF987E887818520859927782E6624F9
S1134C203327622A732A368C278C858DE82EFF243D
S1134C300E2D9288838860898189A0904601B09066
S1134C404201C090890ED0908A0E7727762F66276E
S1134C509927682B792BC3010E94A305C3010E94E5
S1134C600503482E55248BE090E0489EF001499EB0
S1134C70F00D589EF00D1124EA55FE4F2681822F27
S1134C8099270196112780179107B1F52F5F268385
S1134C9087818F5F8783833089F52A2D2B0D312DF2
S1134CA0311DC9018C0D9D1D292D3327322F22273B
S1134CB0482D5527242B352B82179307F8F481EAC6
S1134CC08F936F9288249924AA24BB24CC24DD24B6
S1134CD0EE24FF24870120E030E040E050E060E073
S1134CE070E080E090E00E94CF0E70925D0A6092C6
S1134CF05C0A0F900F9002C0E6821782832D9927D9
S1134D00982F8827222D3327822B932B2091000163
S1134D10309101018217930729F583EA8F936F92EB
S1134D2088249924AA24BB24CC24DD24EE24FF2443
S1134D30870120E030E040E050E060E070E080E097
S1134D4090E00E94CF0E8BE090E0489EF001499ED7
S1134D50F00D589EF00D1124EA55FE4F81E0828734
S1134D600F900F908091470190914901992351F040
S1134D708F5F80934701853011F410924701915061
S1134D8090934901888599850E942C03882309F40E
S1134D90B2C589E521C08091EA0D40914201882382
S1134DA009F45DC010923E01413039F400912A04A7
S1134DB010912B041092420119C090E08091460199
S1134DC0882309F491E0992351F08091890E909100
S1134DD08A0E892B21F48AE40E946C108CC50E94EF
S1134DE094048C0190932B0480932A04A0911204C0
S1134DF0B0911304F8012189328984E3F901019007
S1134E009F010D928150D1F7F801818992890E9406
S1134E102C03882319F08BEB0E946C10C8010E94AC
S1134E204603882319F08CEB0E946C100091120445
S1134E3010911304D801EC90BFEDEB0EFF246E2DFE
S1134E40C8010E94B1044E2DBC01C8010E94610D2D
S1134E5090931304809312040E9475104CC5413042
S1134E6029F460902A0470902B04B5C15091460136
S1134E7080E0552309F481E0882341F08091890E74
S1134E8090918A0E892B11F480E4A6CF2091890E8B
S1134E9030918A0E80910911882309F4DCC1E52F31
S1134EA0E40FF12DF11DE20FF31FF987E887FFB737
S1134EB0FE83F894E884F98400271127EA82FB82B0
S1134EC00C831D8388247FEF472E7FEF572E7FEFBF
S1134ED0672E7FEF772E99241982AA24BB24CC2431
S1134EE0DD24F0900911FF826BE0262E312C50C096
S1134EF09927829D9001839D300D929D300D112440
S1134F002A553E4FF9018285813079F41286992021
S1134F1029F0808191818A159B05B8F5D901AD905E
S1134F20BC90C98251E0952E30C0F90180819181F5
S1134F30AA27BB27EA80FB800C811D81E81AF90AA5
S1134F400A0B1B0B84819581880F991F64E670E01E
S1134F500E94983088279927E61AF70A080B190B3C
S1134F606281738180E197E20E9498309B0144271B
S1134F705527C801B7010E946D30461657066806CA
S1134F8079061CF48C2C2B013C010894C11CD11C07
S1134F908C2DFF81CF1608F4ABCF992009F45EC0A5
S1134FA0882D99273BE0232E312C829DF001839D8F
S1134FB0F00D929DF00D1124EA55FE4F80819181F0
S1134FC08A159B0508F44AC0E884F98427016624FD
S1134FD07724950144275527421A530A640A750A0F
S1134FE08EEF9FEFAFEFBFEF480E591E6A1E7B1E78
S1134FF0141415041604170414F582E18F931F92F8
S113500088249924AA24BB24CC24DD24EE24FF2460
S113501087016A817B818C819D810E94CF0EA98149
S11350208A2F9927829DF001839DF00D929DF00DAA
S11350301124EA55FE4F81E082870F900F90B981C9
S11350408B2F9927829DF001839DF00D929DF00D89
S11350501124EA55FE4F4085518510C0282D332771
S11350608BE090E0289FF001299FF00D389FF00D10
S11350701124EA55FE4F408551858982EE818E2F99
S113508099278FBF14141504160417040CF0E3C0F9
S1135090F9812F2F33278BE090E0289FF001299F7F
S11350A0F00D389FF00D1124EA55FE4F8081918157
S11350B05093030A4093020A9093071180930611B8
S11350C090E080914601882309F491E0992309F442
S11350D071C0809045049924A0904404BB248AEDB7
S11350E08F931F92CC24DD24EE24FF24870120E03B
S11350F030E040E050E060E070E080E090E00E944A
S11351007C0F0E94BD048C010F900F90892B11F429
S11351108BE662CE0E94DC047C01009759F48CE695
S11351200E946C10C8010E944603882309F4E3C35B
S11351308DE652CEFC01128E809100019091010106
S1135140818F892F9927808F809122048F5F80938C
S113515022048150838F1786168615861486158A35
S1135160148A82E0848F0E942903F8016483758382
S1135170868397831086118612861386D8011D9222
S11351801D921D921C921397F28AE18A81E0808B12
S1135190138AC8010E94FB04882319F087E40E9443
S11351A06C108091890E90918A0E019790938A0ECB
S11351B08093890E0E9494043C0190932B04809365
S11351C02A040E94DC01F301608771878287938738
S11351D081E080934201F301A189B289DC90838943
S11351E0853008F442C0FD01878126819927982FD4
S11351F0882733276AE0822B932B0E941210F30135
S1135200A189B289FD01968187E78F939F93B5E0C9
S11352108B2E912CAA24BB24CC24DD24EE24FF2441
S1135220870120E030E040E050E060E070E080E0A2
S113523090E00E947C0FF301138A0E94691CC30151
S11352400E94FB040F900F90882319F088E40E94B9
S11352506C101092420110923E0142E350E060E073
S113526070E082E00E94220246C38F5FF301838BC9
S11352708091400190914101019690934101809366
S11352804001E090020AF090030AAD014F5F5F4FC6
S1135290FA018181FD0121819927982F88273327DD
S11352A02062822B932B8183892F9927FA01818392
S11352B0F301018912898091460120914201820FF4
S11352C0912D911D2091890E30918A0E820F931F8A
S11352D0F801818B892F9927808B809106119091F9
S11352E00711838B892F9927828B80914001858FA9
S11352F080915C0A90915D0A878F892F9927868F08
S1135300809100019091010190935D0A80935C0A61
S1135310848925899927982F88273327822B932BD3
S11353200196858B892F9927848B0E942903F30189
S11353302481358146815781621B730B840B950B45
S11353402081318142815381265F3F4F4F4F5F4F10
S1135350620F731F841F951FF8016787272F382F4B
S1135360492F552726879C01442755272587692FD0
S11353707727882799276487F301818992890E9476
S11353801D05F801678B672F7727668BF301018969
S11353901289B701C8010E949D0581E9F80183873C
S11353A0F3EFDF0E4D2D5527B80180E00E9438142D
S11353B09927882309F49FC2843021F410923F0175
S11353C082E30ACD853031F483E30E946C100E949D
S11353D0CD0191C2823009F08EC2F301A189B28954
S11353E089E28C9384E3F8CC0E94890284C21092EF
S11353F02611D8C120918B0E802F822301F1E12F39
S1135400FF27EE0FFF1FED5AFB4F408151811182A0
S11354101082802F8095282320938B0E112319F05E
S1135420113069F405C063E0CA010E94501A60C2D9
S113543041515E4009F05CC210923C0159C21F5FA9
S1135440183008F058C2000FD5CF80910901E82F19
S1135450FF27EE0FFF1FED5AFB4F6081718141E082
S11354600E94F41B48C2E0914A01FF27EE0FFF1F80
S1135470EC5CF54F0190F081E02D8091261188239A
S113548009F039C281859927482F2FEF2683258378
S113549029E8238781878091520190915301892BB8
S11354A009F029C22FB7F894332785E0809355017A
S11354B010925601F0935101E093500182E090E084
S11354C09093530180935201109258011092570106
S11354D0445F409354012FBF9FB7F89480914204D6
S11354E0882311F020E006C081E0809342041092EA
S11354F0430421E0892F99278FBF222309F4F3C1A4
S11355000E94F10281E080932611F5C18FB7F894CF
S11355101092C80E2091FF0940E0283009F441E0C0
S113552030E0293009F431E0442311F4332351F0FD
S11355301092FF09E0915D04FF27EE0FFF1FE05C6E
S1135540FB4F108299278FBF442311F4332319F1A1
S113555080917D0E8F5F80937D0E80913104833422
S1135560A1F49FB7F89420914A04809149048217CA
S113557041F0822F8F5F80934A04863010F010929E
S11355804A04892F99278FBF0AC0A0E0442309F455
S1135590A1E071E006C0222311F010E069C0A0E090
S11355A070E08FB7F894992720914D018FBF222383
S11355B041F08FB7F89499272AE02093FF098FBF11
S11355C043C08FB7F89499276091400440914204F6
S11355D08FBF8FB7F894282F332750E09091490458
S11355E080914A04981709F451E02FBF552349F5D7
S11355F0662339F55FB7F89482E0809340048FB74F
S1135600F894282F332740E09091490480914A046C
S1135610981709F441E02FBF442311F080E006C03D
S1135620E0914A04FF27E75BFB4F828180934104AA
S1135630852F99278FBF83E48093310410925D04F2
S11356400BC04150423010F010E007C085E4809355
S1135650310481E080935D0411E0772349F08FB732
S1135660F8949927A09356018FBF86E10E94880180
S11356708091FF098A3009F4B7CE112309F43BC1A4
S11356802FB7F894332710922511109224111092F9
S11356902C0481E08093FF092FBF0E94E10288233C
S11356A009F429C18FB7F894992729E02093FF09B9
S11356B08FBF0E94F1021FC15698579810920E098D
S11356C010921904539A549A579A81E080930811BE
S11356D012C185E10E9488010EC15398549810921A
S11356E0081109C110925301109252018FB7F89416
S11356F09927309156018FBF80915701811133E072
S1135700A0915001B091510180915801882309F072
S1135710F2C0FD018385893809F0EDC020914A016A
S1135720E22FFF27EE0FFF1FEC5CF54F8081918184
S1135730A817B90709F0DFC0332309F058CE9091B8
S11357404C01992359F0822F8F5F80934A01843151
S113575011F410924A01915090934C0180910804E5
S1135760843180F4E0912711E80FE43108F0E4512A
S1135770FF27EE0FFF1FEC59FE4FB183A0838F5F0D
S1135780809308041092261190E080914C018823A4
S113579009F491E0992309F0AEC08091081188239F
S11357A009F4A9C00E94D701A6C08FB7F89499271D
S11357B020915A01C0905B01D0905C0130915D0151
S11357C0F090B6038FBF222309F075C0932F9C502D
S11357D0F6018385893809F06EC0993109F06BC0F0
S11357E08601045F1F4F84A199278130C9F40E9468
S11357F0DC01609316017093170180931801909354
S1135800190140E157E260E070E084E00E94220266
S113581048EE53E060E070E085E00E9441021FC062
S11358208230E9F0833031F480918A048D7F809353
S11358308A040DC0843099F0853089F480918A04FB
S11358408D7F80938A0410922E0110922F01109262
S11358502A0110922B0110922C0110922D01D801D3
S11358605796F801978980912E01891719F01092A3
S11358702F0105C080912F018F5F80932F018C91A0
S113588080932E010E945F02FC01892BA1F089E123
S1135890818785E084A380912F01992781A310A299
S11358A08091F00D1092F00D82A380912E0183A3BC
S11358B0CF010E94400D8FB7F894EF2DFF27EE0F14
S11358C0FF1FE15FFE4FD182C08220914E01FF2075
S11358D011F02B7F01C02D7F20934E0110925901AE
S11358E099278FBF08C0109253011092520103C030
S11358F0000F1F5F7FCD29960FB6F894DEBF0FBE51
S1135900CDBFDF91CF911F910F91FF90EF90DF906A
S1135910CF90BF90AF909F908F907F906F905F904B
S11359204F903F902F90089580917A0E8F3FB1F061
S1135930282F3327F901E854FC4F808180937A0E95
S11359408F3F11F480930A118FEF80832F3F31F042
S1135950822F0E940E2381E090E0089580E090E081
S11359600895CFEFD0E1DEBFCDBFFFB6F89448E194
S113597050E06FEF70E088EB93E00E9466308FEFA9
S113598080937A0E80930A1181E08EBD88E080BFF7
S113599083E083BF8CB59DB54AE72CB53DB5281788
S11359A0390708F44150442311F0C901F6CF92B7E6
S11359B082B78917E9F32CB53DB592B782B7891739
S11359C0E9F38CB59DB5821B930B4096F5E0969553
S11359D08795FA95E1F790937C0E80937B0E13BE26
S11359E083B78EBD8EB580BF12BE1DBC1CBC8FEFAD
S11359F086BF86B780937C0080B7992787709070A4
S1135A00892BD1F7D29AD19AD09ADA9AD99AD89A7C
S1135A1015BA8FEF84BBD498DC9810928900109249
S1135A20880080917D00846080937D0080918A004D
S1135A30887F826080938A001DBC1CBC87B7846009
S1135A4087BF8EB5887F84608EBD80E285BF0E944B
S1135A50942C8823E1F712E006E060917B0E7091AC
S1135A607C0E88279927ECE0660F771F881F991F03
S1135A70EA95D1F720E031EE40E050E00E94BF30DB
S1135A802150304029B9832F9927809390001BB966
S1135A90009395001AB8209399008093980010936E
S1135AA09B0000939D0010929A0084E490E09093F0
S1135AB0E50D8093E40D109240041092420410927C
S1135AC0FF0910922C041092310410927D0E109252
S1135AD02511109224111092C80E10925D04109298
S1135AE0E00D1092DF0D109216041092050A109228
S1135AF0EB0D10921A0410925A0410925904109249
S1135B004A0410924904E4E6F1E08EEF94E08193B4
S1135B109193C49621E0EC38F207C9F784E18093AD
S1135B20080410922711EEE7FEE089EC9EE08193D1
S1135B309193C4962EE0E838F207C9F785E0809384
S1135B4010041092A501ECE0F1E18FE099E081935B
S1135B509193449621E1E432F207C9F78CE08093F3
S1135B60440410928C0EE6E0FAE08FE59AE081930B
S1135B709193C4962AE0E832F207C9F781E1809351
S1135B80450410922704109243011092EA0D1092DA
S1135B90091110923C0110923D0110923E011092A5
S1135BA03F0110928E0E109222041092320A8DE15F
S1135BB09EE09093010A8093000A1092E90D1092DE
S1135BC0E80D10920F0410920E0410921E0410920D
S1135BD01D041092910110929001109242011092B2
S1135BE08A0E1092890E109241011092400182EDAA
S1135BF093E0909313048093120480910001909198
S1135C00010190935D0A80935C0AE2E9F1E08FEF71
S1135C109FEF918380831282339621E0EE39F2075D
S1135C20C1F70E94F1056093D40D80910001909119
S1135C3001010196AA27BB2780932304909324048F
S1135C40A0932504B093260480B7886080BF8BE0BE
S1135C5083BF86EE81BF87B7826087BF0E947A06C2
S1135C6085E49EE09093600180935F018E98B89ADA
S1135C708C988FEF8093110410922D0A10922E0AA3
S1135C8010922F0A1092300AB89AD69AD59A8FB7E2
S1135C90F894992720910601309107018FBF309322
S1135CA037042093360480910801992790931C04AB
S1135CB080931B0485E08093280A8AE180935E0A1E
S1135CC010920B0410928F0E81E080931F041092A7
S1135CD0330A0E94942C8823E1F78F2D99278FBFD4
S1135CE078940E941717109226111092081110929E
